{
  "contractName": "Betting",
  "abi": [
    {
      "inputs": [
        {
          "name": "_oracleAddress",
          "type": "address"
        }
      ],
      "payable": false,
      "stateMutability": "nonpayable",
      "type": "constructor",
      "signature": "constructor"
    },
    {
      "constant": false,
      "inputs": [
        {
          "name": "unixTime",
          "type": "uint256"
        },
        {
          "name": "_predictedValue",
          "type": "uint256"
        }
      ],
      "name": "makeBet",
      "outputs": [],
      "payable": true,
      "stateMutability": "payable",
      "type": "function",
      "signature": "0xdf898e32"
    },
    {
      "constant": true,
      "inputs": [
        {
          "name": "unixTime",
          "type": "uint256"
        }
      ],
      "name": "getNumBets",
      "outputs": [
        {
          "name": "numBets",
          "type": "uint256"
        }
      ],
      "payable": false,
      "stateMutability": "view",
      "type": "function",
      "signature": "0x7708e43b"
    },
    {
      "constant": false,
      "inputs": [],
      "name": "payOut",
      "outputs": [
        {
          "name": "",
          "type": "bool"
        }
      ],
      "payable": false,
      "stateMutability": "nonpayable",
      "type": "function",
      "signature": "0xc2052403"
    }
  ],
  "bytecode": "0x608060405234801561001057600080fd5b50604051602080610a218339810180604052810190808051906020019092919050505080600360006101000a81548173ffffffffffffffffffffffffffffffffffffffff021916908373ffffffffffffffffffffffffffffffffffffffff1602179055505061099d806100846000396000f300608060405260043610610057576000357c0100000000000000000000000000000000000000000000000000000000900463ffffffff1680637708e43b1461005c578063c20524031461009d578063df898e32146100cc575b600080fd5b34801561006857600080fd5b50610087600480360381019080803590602001909291905050506100f6565b6040518082815260200191505060405180910390f35b3480156100a957600080fd5b506100b2610115565b604051808215151515815260200191505060405180910390f35b6100f460048036038101908080359060200190929190803590602001909291905050506102c9565b005b6000806000838152602001908152602001600020805490509050919050565b600080600090505b6001805490508110156102c0574260018281548110151561013a57fe5b906000526020600020015410156102b35761023460008060018481548110151561016057fe5b90600052602060002001548152602001908152602001600020805480602002602001604051908101604052809291908181526020016000905b8282101561022b57838290600052602060002090600202016040805190810160405290816000820160009054906101000a900473ffffffffffffffffffffffffffffffffffffffff1673ffffffffffffffffffffffffffffffffffffffff1673ffffffffffffffffffffffffffffffffffffffff16815260200160018201548152505081526020019060010190610199565b50505050610485565b60018080805490500381548110151561024957fe5b906000526020600020015460018281548110151561026357fe5b906000526020600020018190555060018080805490500381548110151561028657fe5b906000526020600020016000905560018054809190600190036102a991906108cf565b50600191506102c5565b808060010191505061011d565b600091505b5090565b6102d16108fb565b6706f05b59d3b2000034141515610376576040517f08c379a00000000000000000000000000000000000000000000000000000000081526004018080602001828103825260308152602001807f5468652065746865722073656e74206d75737420657175616c20746865206d6981526020017f6e696d756d2062657420616d6f756e740000000000000000000000000000000081525060400191505060405180910390fd5b60008060008581526020019081526020016000208054905014156103c15760018390806001815401808255809150509060018203906000526020600020016000909192909190915055505b60408051908101604052803373ffffffffffffffffffffffffffffffffffffffff168152602001838152509050600080848152602001908152602001600020819080600181540180825580915050906001820390600052602060002090600202016000909192909190915060008201518160000160006101000a81548173ffffffffffffffffffffffffffffffffffffffff021916908373ffffffffffffffffffffffffffffffffffffffff16021790555060208201518160010155505050505050565b6000806000806000806000600360009054906101000a900473ffffffffffffffffffffffffffffffffffffffff1696508673ffffffffffffffffffffffffffffffffffffffff16636421d04b6040518163ffffffff167c0100000000000000000000000000000000000000000000000000000000028152600401602060405180830381600087803b15801561051957600080fd5b505af115801561052d573d6000803e3d6000fd5b505050506040513d602081101561054357600080fd5b8101908080519060200190929190505050955061057c8689600081518110151561056957fe5b9060200190602002015160200151610889565b94506002600061058c919061092b565b600288600081518110151561059d57fe5b906020019060200201516000015190806001815401808255809150509060018203906000526020600020016000909192909190916101000a81548173ffffffffffffffffffffffffffffffffffffffff021916908373ffffffffffffffffffffffffffffffffffffffff16021790555050600193505b87518410156107bf5784610642878a8781518110151561062f57fe5b9060200190602002015160200151610889565b14156106ce576002888581518110151561065857fe5b906020019060200201516000015190806001815401808255809150509060018203906000526020600020016000909192909190916101000a81548173ffffffffffffffffffffffffffffffffffffffff021916908373ffffffffffffffffffffffffffffffffffffffff160217905550506107b2565b846106f4878a878151811015156106e157fe5b9060200190602002015160200151610889565b10156107b15761071f86898681518110151561070c57fe5b9060200190602002015160200151610889565b94506002600061072f919061092b565b6002888581518110151561073f57fe5b906020019060200201516000015190806001815401808255809150509060018203906000526020600020016000909192909190916101000a81548173ffffffffffffffffffffffffffffffffffffffff021916908373ffffffffffffffffffffffffffffffffffffffff160217905550505b5b8380600101945050610613565b60028054905088516706f05b59d3b20000028115156107da57fe5b049250600091505b60028054905082101561087f576002828154811015156107fe57fe5b9060005260206000200160009054906101000a900473ffffffffffffffffffffffffffffffffffffffff1690508073ffffffffffffffffffffffffffffffffffffffff166108fc849081150290604051600060405180830381858888f19350505050158015610871573d6000803e3d6000fd5b5081806001019250506107e2565b5050505050505050565b600080828403905060008112156108c457807fffffffffffffffffffffffffffffffffffffffffffffffffffffffffffffffff0291506108c8565b8091505b5092915050565b8154818355818111156108f6578183600052602060002091820191016108f5919061094c565b5b505050565b6040805190810160405280600073ffffffffffffffffffffffffffffffffffffffff168152602001600081525090565b5080546000825590600052602060002090810190610949919061094c565b50565b61096e91905b8082111561096a576000816000905550600101610952565b5090565b905600a165627a7a72305820d1693e118dcc68e54ff1b2f4e25b74916333d5d82aea56cb32b2d4e24182a6dc0029",
  "source": "pragma solidity^0.4.25;\n\nimport \"./WeatherOracle.sol\";\n\ncontract Betting {\n\n    struct Bet {\n        address addr;\n        uint predictedValue;\n    }\n\n    uint constant minimumBet = 0.5 ether;\n\n    mapping(uint => Bet[]) private currentBets;\n\n    uint[] daysWithBets;\n\n    address[] mostRecentWinners;\n\n    address oracleAddress;\n\n    constructor (address _oracleAddress) public {\n        oracleAddress = _oracleAddress;\n    }\n\n    function makeBet(uint unixTime, uint _predictedValue) public payable {\n        // This checks that the bet cannot be placed for the current day\n        // require(unixTime > now && unixTime - now > 1 days\n        // , \"The time provided has already passed for betting on\");\n        require(msg.value == minimumBet, \"The ether sent must equal the minimum bet amount\");\n\n        // if there are no bets on this day add the day to the list of bets\n        if (currentBets[unixTime].length == 0) {\n            daysWithBets.push(unixTime);\n        }\n        // Create the bet and push it to the array for the given day\n        Bet memory bet = Bet(msg.sender, _predictedValue);\n        currentBets[unixTime].push(bet);\n\n    }\n\n    function getNumBets(uint unixTime) public view returns (uint numBets) {\n        return currentBets[unixTime].length;\n    }\n\n    // Function is called to see if the date has passed and anyone needs to be payed out\n    function payOut() public returns (bool) {\n        for (uint i = 0; i < daysWithBets.length; i++) {\n            if (daysWithBets[i] < now) {\n                distributeMoney(currentBets[daysWithBets[i]]);\n                // Remove this day from the list of days with bets since it has passed\n                daysWithBets[i] = daysWithBets[daysWithBets.length-1];\n                delete daysWithBets[daysWithBets.length-1];\n                daysWithBets.length--;\n                return true;\n            }\n        }\n        return false;\n    }\n\n    // This function checks the oracle to see who won and distributes the money accordingly\n    function distributeMoney(Bet[] bets) private {\n        WeatherOracle weather_oracle = WeatherOracle(oracleAddress);\n        uint temprature = weather_oracle.getTemperature();\n        // INVARIANT: The length of the bets list will always be at least 1\n        uint closestValue = abs(temprature, bets[0].predictedValue);\n        delete mostRecentWinners; // clears the array\n        mostRecentWinners.push(bets[0].addr);\n        // Compute the list of winners\n        for (uint i = 1; i < bets.length; i++) {\n            if (abs(temprature, bets[i].predictedValue) == closestValue) {\n                mostRecentWinners.push(bets[i].addr);\n            }\n            else if (abs(temprature, bets[i].predictedValue) < closestValue) {\n                closestValue = abs(temprature, bets[i].predictedValue);\n                delete mostRecentWinners;\n                mostRecentWinners.push(bets[i].addr);\n            }\n        }\n        // Pay out the current winners\n        uint winnerPayout = minimumBet * bets.length / mostRecentWinners.length;\n        for (uint j = 0; j < mostRecentWinners.length; j++) {\n            address winner = mostRecentWinners[j];\n            winner.transfer(winnerPayout);\n        }\n    }\n\n\n    // Helper function for computing the absolute value between two numbers\n    function abs(uint num1, uint num2) private returns (uint absValue) {\n        int difference = int(num1) - int(num2);\n        if (difference < 0) {\n            return uint(-1 * difference);\n        }\n        else {\n            return uint(difference);\n        }\n    }\n\n}",
  "sourcePath": "/Users/grisha/Blockchain/dapp/oracleSmartContracts/contracts/Betting.sol",
  "compiler": {
    "name": "solc",
    "version": "0.4.25+commit.59dbf8f1.Emscripten.clang"
  },
  "schemaVersion": "3.0.5",
  "updatedAt": "2019-03-26T01:15:49.140Z",
  "devdoc": {
    "methods": {}
  },
  "userdoc": {
    "methods": {}
  }
}