{
  "contractName": "VoteForSweaterPt3",
  "abi": [
    {
      "constant": true,
      "inputs": [
        {
          "name": "",
          "type": "uint256"
        }
      ],
      "name": "colorChoices",
      "outputs": [
        {
          "name": "",
          "type": "string"
        }
      ],
      "payable": false,
      "stateMutability": "view",
      "type": "function",
      "signature": "0x3b10f2e7"
    },
    {
      "inputs": [],
      "payable": false,
      "stateMutability": "nonpayable",
      "type": "constructor",
      "signature": "constructor"
    },
    {
      "anonymous": false,
      "inputs": [
        {
          "indexed": false,
          "name": "sender",
          "type": "address"
        },
        {
          "indexed": false,
          "name": "color",
          "type": "string"
        }
      ],
      "name": "SweaterEvent",
      "type": "event",
      "signature": "0xe55fdefd73779ae41868aee374a0c360596da8f05a2502213a1d9c164c4ed2f6"
    },
    {
      "constant": false,
      "inputs": [
        {
          "name": "color",
          "type": "string"
        }
      ],
      "name": "sweaterVote",
      "outputs": [],
      "payable": false,
      "stateMutability": "nonpayable",
      "type": "function",
      "signature": "0xae2000cd"
    },
    {
      "constant": true,
      "inputs": [
        {
          "name": "color",
          "type": "string"
        }
      ],
      "name": "getVotes",
      "outputs": [
        {
          "name": "votes",
          "type": "uint256"
        }
      ],
      "payable": false,
      "stateMutability": "view",
      "type": "function",
      "signature": "0x805265e5"
    },
    {
      "constant": true,
      "inputs": [
        {
          "name": "voteAddress",
          "type": "address"
        }
      ],
      "name": "checkAlreadyVoted",
      "outputs": [
        {
          "name": "voted",
          "type": "bool"
        }
      ],
      "payable": false,
      "stateMutability": "view",
      "type": "function",
      "signature": "0x6bf87411"
    }
  ],
  "bytecode": "0x60806040526080604051908101604052806040805190810160405280600481526020017f626c75650000000000000000000000000000000000000000000000000000000081525081526020016040805190810160405280600581526020017f677265656e00000000000000000000000000000000000000000000000000000081525081526020016040805190810160405280600381526020017f726564000000000000000000000000000000000000000000000000000000000081525081526020016040805190810160405280600581526020017f62726f776e00000000000000000000000000000000000000000000000000000081525081525060019060046200010c929190620001dd565b503480156200011a57600080fd5b50600080600091505b600180549050821015620001d5576001828154811015156200014157fe5b906000526020600020019050600080826040518082805460018160011615610100020316600290048015620001b05780601f106200018d576101008083540402835291820191620001b0565b820191906000526020600020905b8154815290600101906020018083116200019b575b5050915050908152602001604051809103902081905550818060010192505062000123565b505062000370565b82805482825590600052602060002090810192821562000231579160200282015b82811115620002305782518290805190602001906200021f92919062000244565b5091602001919060010190620001fe565b5b509050620002409190620002cb565b5090565b828054600181600116156101000203166002900490600052602060002090601f016020900481019282601f106200028757805160ff1916838001178555620002b8565b82800160010185558215620002b8579182015b82811115620002b75782518255916020019190600101906200029a565b5b509050620002c79190620002fc565b5090565b620002f991905b80821115620002f55760008181620002eb919062000324565b50600101620002d2565b5090565b90565b6200032191905b808211156200031d57600081600090555060010162000303565b5090565b90565b50805460018160011615610100020316600290046000825580601f106200034c57506200036d565b601f0160209004906000526020600020908101906200036c9190620002fc565b5b50565b61071b80620003806000396000f300608060405260043610610062576000357c0100000000000000000000000000000000000000000000000000000000900463ffffffff1680633b10f2e7146100675780636bf874111461010d578063805265e514610168578063ae2000cd146101e5575b600080fd5b34801561007357600080fd5b506100926004803603810190808035906020019092919050505061024e565b6040518080602001828103825283818151815260200191508051906020019080838360005b838110156100d25780820151818401526020810190506100b7565b50505050905090810190601f1680156100ff5780820380516001836020036101000a031916815260200191505b509250505060405180910390f35b34801561011957600080fd5b5061014e600480360381019080803573ffffffffffffffffffffffffffffffffffffffff169060200190929190505050610309565b604051808215151515815260200191505060405180910390f35b34801561017457600080fd5b506101cf600480360381019080803590602001908201803590602001908080601f016020809104026020016040519081016040528093929190818152602001838380828437820191505050505050919291929050505061035f565b6040518082815260200191505060405180910390f35b3480156101f157600080fd5b5061024c600480360381019080803590602001908201803590602001908080601f01602080910402602001604051908101604052809392919081815260200183838082843782019150505050505091929192905050506103d3565b005b60018181548110151561025d57fe5b906000526020600020016000915090508054600181600116156101000203166002900480601f0160208091040260200160405190810160405280929190818152602001828054600181600116156101000203166002900480156103015780601f106102d657610100808354040283529160200191610301565b820191906000526020600020905b8154815290600101906020018083116102e457829003601f168201915b505050505081565b6000600260008373ffffffffffffffffffffffffffffffffffffffff1673ffffffffffffffffffffffffffffffffffffffff16815260200190815260200160002060009054906101000a900460ff169050919050565b600080826040518082805190602001908083835b6020831015156103985780518252602082019150602081019050602083039250610373565b6001836020036101000a0380198251168184511680821785525050505050509050019150509081526020016040518091039020549050919050565b6000801515600260003373ffffffffffffffffffffffffffffffffffffffff1673ffffffffffffffffffffffffffffffffffffffff16815260200190815260200160002060009054906101000a900460ff16151514151561043357600080fd5b600090505b6001805490508110156106eb57816040518082805190602001908083835b60208310151561047b5780518252602082019150602081019050602083039250610456565b6001836020036101000a0380198251168184511680821785525050505050509050019150506040518091039020600019166001828154811015156104bb57fe5b9060005260206000200160405180828054600181600116156101000203166002900480156105205780601f106104fe576101008083540402835291820191610520565b820191906000526020600020905b81548152906001019060200180831161050c575b505091505060405180910390206000191614156106de5760016000836040518082805190602001908083835b602083101515610571578051825260208201915060208101905060208303925061054c565b6001836020036101000a0380198251168184511680821785525050505050509050019150509081526020016040518091039020600082825401925050819055506001600260003373ffffffffffffffffffffffffffffffffffffffff1673ffffffffffffffffffffffffffffffffffffffff16815260200190815260200160002060006101000a81548160ff0219169083151502179055507fe55fdefd73779ae41868aee374a0c360596da8f05a2502213a1d9c164c4ed2f63383604051808373ffffffffffffffffffffffffffffffffffffffff1673ffffffffffffffffffffffffffffffffffffffff16815260200180602001828103825283818151815260200191508051906020019080838360005b8381101561069e578082015181840152602081019050610683565b50505050905090810190601f1680156106cb5780820380516001836020036101000a031916815260200191505b50935050505060405180910390a16106eb565b8080600101915050610438565b50505600a165627a7a723058203cb6123270d8c0af595303ad810a7121a30f3e0c620211d285ed26ece3d90a9f0029",
  "source": "pragma solidity 0.4.25;\n\ncontract VoteForSweaterPt3 {\n\n  mapping(string => uint) sweaterMap;\n  string[] public colorChoices = [\"blue\", \"green\", \"red\", \"brown\"];\n  mapping(address => bool) alreadyVoted;\n\n  event SweaterEvent(address sender, string color);\n\n  constructor() {\n    for (uint i = 0; i < colorChoices.length; i++) {\n      var color = colorChoices[i];\n      sweaterMap[color] = 0;\n    }\n  }\n\n  function sweaterVote(string memory color) public {\n    require(alreadyVoted[msg.sender] == false);\n    for (uint i = 0; i < colorChoices.length; i++) {\n        if (keccak256(colorChoices[i]) == keccak256(color)) {\n            sweaterMap[color] += 1;\n            alreadyVoted[msg.sender] = true;\n            emit SweaterEvent(msg.sender, color);\n            break;\n        }\n    }\n  }\n\n  function getVotes(string memory color) public view returns (uint votes) {\n      return sweaterMap[color];\n  }\n\n  function checkAlreadyVoted(address voteAddress) public view returns (bool voted) {\n      return alreadyVoted[voteAddress];\n  }\n}\n",
  "sourcePath": "/home/will/Documents/simpleDapp/oracleSmartContracts/contracts/VoteForSweaterPt3.sol",
  "compiler": {
    "name": "solc",
    "version": "0.4.25+commit.59dbf8f1.Emscripten.clang"
  },
  "schemaVersion": "3.0.5",
  "updatedAt": "2019-03-27T14:41:33.658Z",
  "devdoc": {
    "methods": {}
  },
  "userdoc": {
    "methods": {}
  }
}